:100000000C943A000C9457000C9457000C94570031
:100010000C9457000C9457000C9457000C94570004
:100020000C9457000C9457000C9457000C945700F4
:100030000C9457000C9457000C9457000C945700E4
:100040000C9457000C9457000C9457000C945700D4
:100050000C9457000C9457000C9457000C945700C4
:100060000C9457000C9457000C9457000C945700B4
:100070000C94570011241FBECFEFD4E0DEBFCDBFDC
:1000800013E0A0E0B1E0EEEAFDE002C005900D92C1
:10009000AE33B107D9F723E0AEE3B3E001C01D9260
:1000A000A535B207E1F70E942C060C94D5060C94F6
:1000B0000000CF93DF9300D0CDB7DEB789831A82DB
:1000C000CE0101960E9482050F900F90DF91CF9193
:1000D00008950C94A3010C94C4010C94A9010C94F0
:1000E000AF010C94B5010E94B5010E94AF018823B5
:1000F000E1F38CE291E00197F1F70E94A3018111F5
:100100000C946B0008950C94CB01CF93DF9300D037
:100110000F92CDB7DEB78091130390911403A09195
:10012000150389839A83AB83509A589A0E9476016B
:100130008FE690E00E940D0181E090E00E94650151
:1001400061E070E081E090E00E9452010E943E0177
:10015000CE0101960E948B010F900F900F90DF91BE
:10016000CF910895CF93DF93DC01FB0160E080E045
:10017000C1E0D0E0841305C0F9016083DF91CF9125
:1001800008959191BE01092E02C0660F771F0A944F
:10019000E2F76F5F7F4F769567956A0F7B1F02C00E
:1001A000769567959A95E2F76F3F710529F320F3ED
:1001B0008F5FE0CFE1E6F0E080E880831082A895D1
:1001C00084B7877F84BFE0E6F0E080818861808328
:1001D000108208951092800084E080938100109234
:1001E000850010928400089580918400909185008C
:1001F0000895AC0180918400909185009C01241B9E
:10020000350B283E3340B0F708952091840030919B
:100210008500820F931F0C94F900CF93DF930F9208
:10022000CDB7DEB79E012F5F3F4F45E066E173E03B
:100230000E94B20091E0980F909300019981915033
:1002400097BD18BC95B5977039F025B59091000110
:100250009770287F922B95BD298130E0E82FF0E040
:10026000EA5EFC4F8081A90102C0440F551F8A95A8
:10027000E2F7CA010F90DF91CF91089585B3897F8E
:1002800085BB95B5809100018770987F892B85BDCE
:10029000089585B5887F85BD089585B382FB88273D
:1002A00080F90895009719F0019751F0089584B5E9
:1002B0008F736295660F660F607C682B64BD08952E
:1002C00084B5629560738F7CF8CF009721F0019719
:1002D00039F080E0089584B58C7F84BD81E0089575
:1002E00084B58E7F84BD84B58260F7CF14BC15BC05
:1002F00016BC18BC84B58E7F84BD84B5826084BD75
:1003000081E008959C01215031093093CD00815046
:100310008093CC000895CF93DF93EC01888199817D
:100320000E9482018A819BEF980F943008F088E048
:1003300098E19093C9008550880F8093CA0081E0AE
:10034000DF91CF9108958091C800881F8827881F6A
:1003500008958091C80085FB882780F908958091D1
:10036000C80086FB882780F90895CF93C82F0E9484
:10037000A9018823E1F38091C80080648093C800BC
:10038000C093CE00CF9108958091C80087FFFCCF25
:100390008091CE000895CF93DF93EC018991811174
:1003A00003C0DF91CF9108950E94B501F7CF85304A
:1003B00098F4673088F421E030E001C0220F6A959C
:1003C000EAF7E82FF0E0E15CFC4F822F8095908106
:1003D00089234111822B80830895853080F4673012
:1003E00070F4E82FF0E0E15CFC4F81E090E001C0A8
:1003F000880F6A95EAF79081982381E009F480E0FC
:10040000089560913E03E62FF0E0E15CFC4F8081AF
:100410000E944E0280913E038F5F853018F48093D6
:100420003E03089510923E030895EFE3F3E0108237
:10043000118212821382148208950E942C020C945D
:1004400015029C01FC01FF2784A1832B84A395A1A5
:10045000932B95A381E00895CF93DF93C5E2D3E07A
:10046000899199910E94210283E0C333D807C1F793
:1004700083E090E40E94210280E090E80E94210243
:1004800083E090E10E94210283E090E80E94210233
:1004900083E090E2DF91CF910C942102E09144033C
:1004A000F0E0EE0FFF1FE55EFC4F20813181F90186
:1004B000FF2795A1932B95A3A5E2B3E043E353E077
:1004C0002D913D91F901FF2780FF1BC025A1932F9E
:1004D0009095922395A386954A175B0789F7E62F97
:1004E000F0E0EE0FFF1FE55EFC4F20813181F90146
:1004F000FF2795A1832F8095892385A360934403CB
:10050000089595A1932BE6CF6230710551F128F43F
:1005100061307105E1F080E008956330710559F0B4
:1005200064307105C1F7FC01FF2784A1892B84A3E6
:1005300085A1892B09C0FC01FF2784A1892B84A3F5
:1005400025A1892F8095822385A381E00895FC0150
:10055000FF2724A1892F8095282324A395A18923EF
:10056000F3CFFC01FF2724A1892F80958223DFCFC1
:10057000E82FF0E0EE0FFF1FEB5BFC4F808188233C
:1005800029F0818191E089278170089580E0FCCF76
:10059000E82FF0E0EE0FFF1FEB5BFC4F8081811135
:1005A00003C081818170089580E0FCCFE82FF0E0E6
:1005B000EE0FFF1FEB5BFC4F80810895E82FF0E00A
:1005C000EE0FFF1FEB5BFC4F908181E089270895C0
:1005D0007F928F929F92AF92BF92CF92DF92EF92D3
:1005E000FF920F931F93CF93DF93C5E4D3E053E3C0
:1005F000C52E53E0D52E66E0762E88818983F601DC
:10060000019111916F015801BB24F50124A1E12E44
:10061000FF2485A190E08E219F2130E02E213F21F3
:10062000232BB1F133E0832E912C892B19F094E028
:10063000892E912C64E070E0C8010E94840262E07F
:1006400070E0C8010E948402872D8A95F1F7F501B8
:1006500083A190E0E822F92281E0EF2809F080E010
:100660008883B401C8010E9484022296F3E0CF344B
:10067000DF0719F6DF91CF911F910F91FF90EF9057
:10068000DF90CF90BF90AF909F908F907F90089514
:1006900088248394912C892B69F282E0882E912CF6
:1006A000C9CF0895009789F0FC012381621B67FD83
:1006B00009C0062E000C770B948181E0961717066F
:1006C00009F00CF480E08170089580E00895FC0149
:1006D000892B71F18181481758F59281291740F5CE
:1006E0009381A62FA91BA7FD23C00A2E000CBB0BCC
:1006F00094819A171B06E1F0DCF0622F0E945706E6
:10070000480F858190E0BD010E946006242F269548
:1007100026952695E80FF91FE20FF11D868190E0DE
:10072000477002C0959587954A95E2F781700895C4
:1007300080E00895CF93DF93EC010E94EA009E01D0
:1007400050E040E062E17AE780E090E00E948506B8
:100750003093520320935103DF91CF9108958091FC
:100760004F03909150030E94F90080914F039091A4
:1007700050032091510330915203820F931F9093A5
:10078000500380934F030895692F0C94ED0141E0CD
:10079000611101C040E0692F0C94D7010C94C7038C
:1007A0005F926F927F928F929F92AF92BF92CF9201
:1007B000DF92EF92FF920F931F93CF93DF93662EFA
:1007C000572E742E982E892EB62EA72E062E000C8C
:1007D000770BE82F082E000CFF0B8B010E1B1F0B55
:1007E000252D052C000C330B492F092E000C550B21
:1007F000E901C41BD50B17FF59C0DD24DA94D7FDDE
:1008000002C0DD24D3948F01061B170BCC24CA949D
:10081000D7FF03C0EA01C21BD30B0C171D076CF1F5
:10082000780117FF03C08FEFE81AF80AF594E794F0
:10083000A92E961014C0672D8B2D9A2DDF91CF9184
:100840001F910F91FF90EF90DF90CF90BF90AF90EE
:100850009F908F907F906F905F900C94C703672D4F
:10086000892D9A2D0E94C703EC1AFD0AF7FE03C0DA
:10087000E00EF11EAD0C9C0CDCCF7E01D7FF03C057
:100880009FEFE91AF90AF594E794B82E851499F2C6
:10089000672D8B2D982D0E94C703E01AF10AF7FEF1
:1008A00003C0EC0EFD1EBC0C8D0CF0CFCC24C39409
:1008B000DD24DA94D7FDAECFDD24D394AECFFF9202
:1008C0000F931F93CF93DF93D82FF92E162FC72F97
:1008D000042F792F0E94D003402F6D2F7C2F8D2F56
:1008E0009F2D0E94D003402F612F7C2F812F9F2DA1
:1008F0000E94D003402F612F7C2F8D2F9C2FDF91E2
:10090000CF911F910F91FF900C94D0030E9415027C
:10091000E1E0F1E0118A14860895DF92EF92FF92F0
:100920000F931F93CF93DF93D82E7B01162F0F2D9C
:100930008091030190910401C0E0019751F11E2DB7
:100940001C0FE0910901F0910A018181C81708F498
:100950005CC0C0E0E0910901F0910A018281C817F2
:1009600008F455C01F5F27C02D2F4C2F6D2D0E94FE
:100970006703682F8E2D8D0F902F0E94C703DF5FB6
:100980008091090190910A01FC012281D21760F344
:10099000CF5F0F2D0C1BE0910901F0910A018181BD
:1009A000C81798F0C0E0E0910901F0910A01828136
:1009B000C81768F00150812F902FDF91CF911F91C0
:1009C0000F91FF90EF90DF900895D0E0D9CF60E0D5
:1009D0008E2D8C0F902F0E94C703CF5FE4CF2D2F59
:1009E0004C2F6D2D0E946703682F812F9F2D9D0F27
:1009F0000E94C703DF5F8091090190910A01FC0109
:100A00002281D21760F3CF5F9ACFD0E0F4CF60E0BD
:100A1000812F9F2D9C0F0E94C703CF5F9BCF0F9309
:100A20001F93CF938C01C0E0F80181918F0188233F
:100A300041F00E948D04BC01CF5F853014F477FF34
:100A4000F3CF8C2FCF911F910F9108950F931F9388
:100A5000CF93DF938C019B0110920D0140930E0107
:100A600010921101C0910901D0910A01209709F457
:100A700044C08981609107017091080190E00E9453
:100A80006006BC0180910B0190910C010E947106DF
:100A9000CB016AE070E00E946006909310018093A1
:100AA0000F01309306012093050140E250E0B801A8
:100AB00082E191E00E94C6068091010190910201BD
:100AC0000197D9F4F80101900020E9F73197BF01AF
:100AD000601B710B89818F5F0E94570681502091A6
:100AE00003013091040195E02130310509F497E0CC
:100AF000981718F48EEF80931101DF91CF911F9119
:100B00000F910895209103013091040170E021308C
:100B1000310509F476E04FEF60E00C94260590E093
:100B200090930801809307010895909302018093A8
:100B30000101089590930401809303010895909317
:100B40000A01809309010895809153039091540301
:100B50000196909354038093530320910F01309199
:100B600010018217930708F441C0109254031092A9
:100B70005303E0910D01F0E0EF5FFE4F8189811199
:100B800009C080910E01823088F1815080930E015E
:100B900010920D0180910D0190E0FC01EF5FFE4F7E
:100BA0002189222319F140910101509102012091E4
:100BB000110141155105E1F04130510551F180918C
:100BC00011018F5F80931101082E000C990BE091A9
:100BD0000901F0910A012181281719063CF41092AD
:100BE000110180910D018F5F80930D010C94010222
:100BF0002111E5CF60910501709106018E5E9E4F37
:100C00000E940F0590910D019150890F80930D0165
:100C1000D6CF60910501709106014091030150917A
:100C200004014130510531F4720F8E5E9E4F0E94D7
:100C30000F05C5CF621BF9CFCF93DF93C1E0D1E0A1
:100C40009B878A870E941D0284E190E09F838E83A8
:100C5000DF91CF910C9486040E94DA0084EF91E03A
:100C60000E941C0682E391E00E949F058AE00E9498
:100C70008F050E94510384EF91E00E949A03C1E422
:100C80000E94AF030E94A4050E94E80280E00E9437
:100C9000B8028111CF5F82E00E94B8028111C15079
:100CA00084E00E94B8028C2F0E945900E9CF0024F2
:100CB00080FD060E660F11F08695D1F7802D089500
:100CC0000024552704C0080E591F880F991F00974C
:100CD00029F076956795B8F37105B9F7802D952FB2
:100CE0000895AA1BBB1B51E107C0AA1FBB1FA61773
:100CF000B70710F0A61BB70B881F991F5A95A9F7C5
:100D000080959095BC01CD010895052E97FB1EF4AA
:100D100000940E949C0657FD07D00E94A40607FC81
:100D200003D04EF40C949C06509540953095219537
:100D30003F4F4F4F5F4F0895909580957095619507
:100D40007F4F8F4F9F4F0895A1E21A2EAA1BBB1B06
:100D5000FD010DC0AA1FBB1FEE1FFF1FA217B30787
:100D6000E407F50720F0A21BB30BE40BF50B661F9D
:100D7000771F881F991F1A9469F760957095809561
:100D800090959B01AC01BD01CF010895FB01DC01F1
:100D90004150504048F001900D920020C9F701C029
:0E0DA0001D9241505040E0F70895F894FFCFA7
:100DAE000100000000000014000000000000000020
:100DBE000000000000000000000000000000000025
:100DCE000000000000000000000000000000000015
:100DDE000000010507205F050000000000C6186333
:100DEE0080014A290000004A7DF59502C417471F6D
:100DFE000163222232062615519305860800000053
:100E0E0088082108028220848800805457090080B7
:100E1E00904F0800000060880000800F0000000066
:100E2E00008C0100222202002EE63AA303C41042D7
:100E3E0088032E4244C4072E4207A30388A9F41147
:100E4E00023F8407A3032E8617A3033F42440801E3
:100E5E002E4617A3032E460FA303C018600C00C026
:100E6E00186088008888200802007CF0010082202B
:100E7E008888002E424400012E425BAB0344C51FFE
:100E8E0063042FC617E3032E8610A2032FC618E3A2
:100E9E00033F8417C2073F841742002E861EA30706
:100EAE0031C61F63048E10428803104218A303310B
:100EBE0095515204218410C20771D71A630471D65A
:100ECE001C63042EC618A3032FC61742002EC65845
:100EDE0093052FC61763042E0607A3039F1042081F
:100EEE000131C618A30331C618150131C65AAB021B
:100EFE00312AA26204312A4208011F2222C2072788
:100F0E008410C20120088220000E218490034445E3
:100F1E00000000000000C00782200000000038E83A
:100F2E00A30721B419E30300B810A20310DA1CA31F
:100F3E000700B8F883034C8A238400C0C7E8A103D6
:100F4E0021B41963040418428803083084920121E5
:100F5E00A4324A02861042880300AC5A630400B4DD
:100F6E0019630400B818A30300BCF8420000D8ECC3
:100F7E00210400B419420000B8E0E003421C212411
:100F8E000300C418B30500C418150100C45AAB02FF
:100F9E00004445540400C4E8A103007C44C40788FF
:100FAE001041080284104208018210448800008813
:100FBE008A0000D00008000306080A0340008003E0
:100FCE0010038003200040002000100008000400E1
:0E0FDE00020001038003400320008003100086
:00000001FF
