:100000000C943A000C9457000C9457000C94570031
:100010000C9457000C9457000C9457000C94570004
:100020000C9457000C9457000C9457000C945700F4
:100030000C9457000C9457000C9457000C945700E4
:100040000C9457000C9457000C9457000C945700D4
:100050000C9457000C9457000C9457000C945700C4
:100060000C9457000C9457000C9457000C945700B4
:100070000C94570011241FBECFEFD4E0DEBFCDBFDC
:1000800011E0A0E0B1E0E2EEF4E002C005900D92D4
:10009000AA31B107D9F721E0AAE1B1E001C01D9270
:1000A000A832B207E1F70E948F010C946F020C9402
:1000B0000000E1E6F0E080E880831082A89584B734
:1000C000877F84BFE0E6F0E08081886180831082D2
:1000D00008951092800084E0809381001092850042
:1000E0001092840008958091840090918500089575
:1000F000AC0180918400909185009C01241B350BFC
:10010000283E3340B0F70895209184003091850057
:10011000820F931F0C947800811105C0662311F0A3
:10012000429A0895429808953A9A429A0895623000
:10013000710551F128F461307105E1F080E0089516
:100140006330710559F064307105C1F7FC01FF2778
:1001500084A1892B84A385A1892B09C0FC01FF27D9
:1001600084A1892B84A325A1892F8095822385A32F
:1001700081E00895FC01FF2724A1892F8095282381
:1001800024A395A18923F3CFFC01FF2724A1892F64
:1001900080958223DFCFE82FF0E0EE0FFF1FE65EB1
:1001A000FE4F8081882329F0818191E08927817029
:1001B000089580E0FCCFE82FF0E0EE0FFF1FE65E31
:1001C000FE4F8081811103C081818170089580E09C
:1001D000FCCFE82FF0E0EE0FFF1FE65EFE4F8081C0
:1001E0000895E82FF0E0EE0FFF1FE65EFE4F9081CE
:1001F00081E0892708957F928F929F92AF92BF925C
:10020000CF92DF92EF92FF920F931F93CF93DF93E2
:10021000CAE1D1E050E1C52E51E0D52E66E0762E40
:1002200088818983F601019111916F015801BB24E6
:10023000F50124A1E12EFF2485A190E08E219F21CC
:1002400030E02E213F21232BB1F133E0832E912C7E
:10025000892B19F094E0892E912C64E070E0C8019C
:100260000E94970062E070E0C8010E949700872D0D
:100270008A95F1F7F50183A190E0E822F92281E067
:10028000EF2809F080E08883B401C8010E9497003C
:100290002296F1E0C432DF0719F6DF91CF911F916A
:1002A0000F91FF90EF90DF90CF90BF90AF909F9015
:1002B0008F907F90089588248394912C892B69F2E4
:1002C00082E0882E912CC9CF0895CF93DF93EC0163
:1002D0000E9469009E0150E040E062E17AE780E020
:1002E00090E00E942E023093270120932601DF9197
:1002F000CF91089580912401909125010E9478006A
:1003000080912401909125012091260130912701AF
:10031000820F931F90932501809324010895CDB7F8
:10032000DEB760970FB6F894DEBF0FBECDBF80E199
:10033000E0E0F1E0DE01119601900D928A95E1F77F
:100340000E94590080EA9FE00E9465010E9494008B
:100350000E94640125E0C22ED12CF12CE12C03E097
:1003600010E034E6A32EB12C0E947A010E94FB001B
:1003700082E00E94CB008823C9F00115110511F01D
:1003800001501109F801EE0FFF1F81E090E08C0F82
:100390009D1FE80FF91F8081918164E670E00E9443
:1003A0000902C296B5010E941A026B0180E00E9408
:1003B000CB008823D9F00F5F1F4F0830110510F0D4
:1003C00007E010E0F801EE0FFF1F81E090E08C0FD6
:1003D0009D1FE80FF91F8081918164E670E00E9403
:1003E0000902C296B5010E941A026B0161E0EC1489
:1003F000FD0408F060E080E00E948C009FEFE91AA5
:10040000F90A84E6E816F10408F4AECFF12CE12CE9
:10041000ABCF0024552704C0080E591F880F991F21
:10042000009729F076956795B8F37105B9F7802D97
:10043000952F0895AA1BBB1B51E107C0AA1FBB1F24
:10044000A617B70710F0A61BB70B881F991F5A9560
:10045000A9F780959095BC01CD010895052E97FBD5
:100460001EF400940E94450257FD07D00E944D02E1
:1004700007FC03D04EF40C944502509540953095FE
:1004800021953F4F4F4F5F4F089590958095709500
:1004900061957F4F8F4F9F4F0895A1E21A2EAA1B9F
:1004A000BB1BFD010DC0AA1FBB1FEE1FFF1FA21724
:1004B000B307E407F50720F0A21BB30BE40BF50B21
:1004C000661F771F881F991F1A9469F760957095AA
:1004D000809590959B01AC01BD01CF010895F894E2
:0204E000FFCF4C
:1004E20000000100020005000A001400320064004E
:0A04F2000380034003200080031084
:00000001FF
