:100000000C943A000C9444000C9444000C9444006A
:100010000C9444000C9444000C9444000C94440050
:100020000C9444000C9444000C9444000C94440040
:100030000C9444000C9444000C9444000C94440030
:100040000C9444000C9444000C9444000C94440020
:100050000C9444000C9444000C9444000C94440010
:100060000C9444000C9444000C9444000C94440000
:100070000C94440011241FBECFEFD4E0DEBFCDBFEF
:100080000E9464000C9474000C940000E1E6F0E01F
:1000900080E880831082A89584B7877F84BFE0E6DC
:1000A000F0E08081886180831082089589B1807832
:1000B00089B990E0089557980895429A089581E08B
:1000C00088B908953A9A08950E9446000E946200F5
:1000D0000E945B000E945600892B19F00E945D006F
:0C00E000F9CF0E945F00F6CFF894FFCF2C
:00000001FF
