:100000000C943A000C9457000C9457000C94570031
:100010000C9457000C9457000C9457000C94570004
:100020000C9457000C9457000C9457000C945700F4
:100030000C9457000C9457000C9457000C945700E4
:100040000C9457000C9457000C9457000C945700D4
:100050000C9457000C9457000C9457000C945700C4
:100060000C9457000C9457000C9457000C945700B4
:100070000C94570011241FBECFEFD4E0DEBFCDBFDC
:1000800011E0A0E0B1E0ECE8F4E002C005900D92D0
:10009000AA30B107D9F721E0AAE0B1E001C01D9272
:1000A000A831B207E1F70E948F010C9444020C942E
:1000B0000000E1E6F0E080E880831082A89584B734
:1000C000877F84BFE0E6F0E08081886180831082D2
:1000D00008951092800084E0809381001092850042
:1000E0001092840008958091840090918500089575
:1000F000AC0180918400909185009C01241B350BFC
:10010000283E3340B0F70895209184003091850057
:10011000820F931F0C947800811105C0662311F0A3
:10012000429A0895429808953A9A429A0895623000
:10013000710551F128F461307105E1F080E0089516
:100140006330710559F064307105C1F7FC01FF2778
:1001500084A1892B84A385A1892B09C0FC01FF27D9
:1001600084A1892B84A325A1892F8095822385A32F
:1001700081E00895FC01FF2724A1892F8095282381
:1001800024A395A18923F3CFFC01FF2724A1892F64
:1001900080958223DFCFE82FF0E0EE0FFF1FE65FB0
:1001A000FE4F8081882329F0818191E08927817029
:1001B000089580E0FCCFE82FF0E0EE0FFF1FE65F30
:1001C000FE4F8081811103C081818170089580E09C
:1001D000FCCFE82FF0E0EE0FFF1FE65FFE4F8081BF
:1001E0000895E82FF0E0EE0FFF1FE65FFE4F9081CD
:1001F00081E0892708957F928F929F92AF92BF925C
:10020000CF92DF92EF92FF920F931F93CF93DF93E2
:10021000CAE0D1E050E0C52E51E0D52E66E0762E42
:1002200088818983F601019111916F015801BB24E6
:10023000F50124A1E12EFF2485A190E08E219F21CC
:1002400030E02E213F21232BB1F133E0832E912C7E
:10025000892B19F094E0892E912C64E070E0C8019C
:100260000E94970062E070E0C8010E949700872D0D
:100270008A95F1F7F50183A190E0E822F92281E067
:10028000EF2809F080E08883B401C8010E9497003C
:100290002296F1E0C431DF0719F6DF91CF911F916B
:1002A0000F91FF90EF90DF90CF90BF90AF909F9015
:1002B0008F907F90089588248394912C892B69F2E4
:1002C00082E0882E912CC9CF0895CF93DF93EC0163
:1002D0000E9469009E0150E040E062E17AE780E020
:1002E00090E00E94EF013093170120931601DF91F7
:1002F000CF91089580911401909115010E9478008A
:1003000080911401909115012091160130911701EF
:10031000820F931F909315018093140108950E94FA
:10032000590088EE93E00E9465010E9494000E94AB
:10033000640138EEE32E33E0F32E10E000E0C1E07C
:10034000D0E048EEC42E43E0D42E0E947A010E94F1
:10035000FB0082E00E94CB00882351F02297D7FF58
:1003600002C0D0E0C0E0C601BE010E94DB017B01FB
:1003700080E00E94CB00882359F02296C536D10533
:1003800014F0C4E6D0E0C601BE010E94DB017B018F
:1003900061E0C701969587950817190708F060E096
:1003A00080E00E948C000F5F1F4F0E151F0568F242
:1003B00010E000E0CACF97FB072E16F4009407D098
:1003C00077FD09D00E940E0207FC05D03EF49095FF
:1003D00081959F4F0895709561957F4F0895052EE3
:1003E00097FB1EF400940E94060257FD07D00E945E
:1003F000220207FC03D04EF40C940602509540955F
:10040000309521953F4F4F4F5F4F089590958095C0
:10041000709561957F4F8F4F9F4F0895AA1BBB1B0F
:1004200051E107C0AA1FBB1FA617B70710F0A61BF4
:10043000B70B881F991F5A95A9F780959095BC0115
:10044000CD010895A1E21A2EAA1BBB1BFD010DC010
:10045000AA1FBB1FEE1FFF1FA217B307E407F50774
:1004600020F0A21BB30BE40BF50B661F771F881F50
:10047000991F1A9469F760957095809590959B01E6
:0C048000AC01BD01CF010895F894FFCF3E
:0A048C0003800340032000800310EA
:00000001FF
