:100000000C943A000C944F000C944F000C944F0049
:100010000C944F000C944F000C944F000C944F0024
:100020000C944F000C944F000C944F000C944F0014
:100030000C944F000C944F000C944F000C944F0004
:100040000C944F000C944F000C944F000C944F00F4
:100050000C944F000C944F000C944F000C944F00E4
:100060000C944F000C944F000C944F000C944F00D4
:100070000C944F0011241FBECFEFD4E0DEBFCDBFE4
:1000800011E0A0E0B1E0ECE2F1E002C005900D92D9
:10009000AE30B107D9F70E946C000C9494000C9418
:1000A00000009C01FC01FF2784A1832B84A395A160
:1000B000932B95A381E00895E1E6F0E080E880834A
:1000C0001082A89584B7877F84BFE0E6F0E0808146
:1000D0008861808310820895C0E0D1E00EE011E0D5
:1000E000899199910E9451000C171D07C9F783E06F
:1000F00090E40E94510080E090E80E94510083E06B
:1001000090E10E94510083E090E80E94510083E05A
:1001100090E20E94510085B190E4892785B988B1A9
:0C01200090E2892788B9FFCFF894FFCF48
:0E012C00004000200010000800040002000146
:00000001FF
