:100000000C943A000C944F000C944F000C944F0049
:100010000C944F000C944F000C944F000C944F0024
:100020000C944F000C944F000C944F000C944F0014
:100030000C944F000C944F000C944F000C944F0004
:100040000C944F000C944F000C944F000C944F00F4
:100050000C944F000C944F000C944F000C944F00E4
:100060000C944F000C944F000C944F000C944F00D4
:100070000C944F0011241FBECFEFD4E0DEBFCDBFE4
:1000800011E0A0E0B1E0E8E3F1E002C005900D92DC
:10009000AE30B107D9F70E9475000C949A000C9409
:1000A00000009C01FC01FF2784A1832B84A395A160
:1000B000932B95A381E0089585B190E4892785B9B4
:1000C00088B190E2892788B90895E1E6F0E080E8F8
:1000D00080831082A89584B7877F84BFE0E6F0E034
:1000E00080818861808310820895C0E0D1E0899189
:1000F00099910E94510081E0CE30D807C1F783E08A
:1001000090E40E94510080E090E80E94510083E05A
:1001100090E10E94510083E090E80E94510083E04A
:1001200090E20E94510070E060E084E090E00E9464
:080130005C00FFCFF894FFCF43
:0E01380000400020001000080004000200013A
:00000001FF
