:100000000C943A000C9457000C9457000C94570031
:100010000C9457000C9457000C9457000C94570004
:100020000C9457000C9457000C9457000C945700F4
:100030000C9457000C9457000C9457000C945700E4
:100040000C9457000C9457000C9457000C945700D4
:100050000C9457000C9457000C9457000C945700C4
:100060000C9457000C9457000C9457000C945700B4
:100070000C94570011241FBECFEFD4E0DEBFCDBFDC
:1000800013E0A0E0B1E0E4EFFCE002C005900D92C7
:10009000AA33B107D9F723E0AAE3B3E001C01D9268
:1000A000A135B207E1F70E949E050C9478060C94E6
:1000B0000000E1E6F0E080E880831082A89584B734
:1000C000877F84BFE0E6F0E08081886180831082D2
:1000D00008951092800084E0809381001092850042
:1000E0001092840008958091840090918500089575
:1000F000AC0180918400909185009C01241B350BFC
:10010000283E3340B0F70895209184003091850057
:10011000820F931F0C947800853098F4673088F430
:1001200021E030E001C0220F6A95EAF7E82FF0E005
:10013000E55CFC4F822F8095908189234111822BB1
:1001400080830895853080F4673070F4E82FF0E004
:10015000E55CFC4F81E090E001C0880F6A95EAF70A
:100160009081982381E009F480E0089560913A033A
:10017000E62FF0E0E55CFC4F80810E94C001809199
:100180003A038F5F853018F480933A0308951092F4
:100190003A030895EBE3F3E0108211821282138296
:1001A000148208950E949E010C94CA0090E081116F
:1001B00013C080E037E48617970791F40895589AA2
:1001C000232F2A95F1F75898242F2A95F1F70196B5
:1001D00086179707A1F7089580E034E242E2F8CF4E
:1001E000232F2A95F1F70196E6CF89B182FB882764
:1001F00080F991E089270895509A5898539A5B980E
:1002000052985A9808951F93CF93DF93182F64E55F
:1002100070E081E00E94D60065E170E080E00E941D
:10022000D600C8E0D0E065E170E010FF02C06AE2ED
:1002300070E081E00E94D60065E170E080E00E94FD
:10024000D6001695219779F765E170E080E0DF919F
:10025000CF911F910C94D600BF92CF92DF92EF9274
:10026000FF920F931F93CF93DF936C010E94F500D1
:100270000FE011E0DAE1811113C090E080E0DF913E
:10028000CF911F910F91FF90EF90DF90CF90BF9093
:1002900008950150110909F43EC08D2F8A95F1F798
:1002A0000E94F500C82F8111F4CF88E0E82EF12CD0
:1002B000D0E09AE1B92EC6950BE510E00E94F5005A
:1002C000882351F010E000E00E94F50081110BC07E
:1002D0000B34110594F010C001501109F9F08B2D69
:1002E0008A95F1F7EBCF8B2D8A95F1F70F5F1F4FB2
:1002F0000639110549F7D1E0C06881E0E81AF10834
:10030000D1F6F601C08381E090E0DD2309F4B7CF98
:100310008EEF9FEFB4CF8FEF9FEFB1CF8DEF9FEFB9
:10032000AECF0C94FC009C01FC01FF2784A1832B21
:1003300084A395A1932B95A381E00895CF93DF9398
:10034000CCE1D3E0899199910E94930183E0CA3274
:10035000D807C1F783E090E40E94930180E090E821
:100360000E94930183E090E10E94930183E090E872
:100370000E94930183E090E2DF91CF910C9493016E
:10038000E0914003F0E0EE0FFF1FEE5EFC4F208196
:100390003181F901FF2795A1932B95A3ACE1B3E03F
:1003A0004AE253E02D913D91F901FF2780FF1BC0E8
:1003B00025A1932F9095922395A386954A175B07C5
:1003C00089F7E62FF0E0EE0FFF1FEE5EFC4F208175
:1003D0003181F901FF2795A1832F8095892385A37A
:1003E00060934003089595A1932BE6CF6230710589
:1003F00051F128F461307105E1F080E00895633037
:10040000710559F064307105C1F7FC01FF2784A123
:10041000892B84A385A1892B09C0FC01FF2784A116
:10042000892B84A325A1892F8095822385A381E030
:100430000895FC01FF2724A1892F8095282324A358
:1004400095A18923F3CFFC01FF2724A1892F809553
:100450008223DFCFE82FF0E0EE0FFF1FEF5BFC4FB2
:100460008081882329F0818191E089278170089516
:1004700080E0FCCFE82FF0E0EE0FFF1FEF5BFC4FBA
:100480008081811103C081818170089580E0FCCF5B
:10049000E82FF0E0EE0FFF1FEF5BFC4F8081089527
:1004A000E82FF0E0EE0FFF1FEF5BFC4F908181E043
:1004B000892708957F928F929F92AF92BF92CF9299
:1004C000DF92EF92FF920F931F93CF93DF93C1E4DC
:1004D000D3E05AE2C52E53E0D52E66E0762E888111
:1004E0008983F601019111916F015801BB24F50137
:1004F00024A1E12EFF2485A190E08E219F2130E0F0
:100500002E213F21232BB1F133E0832E912C892B17
:1005100019F094E0892E912C64E070E0C8010E94EB
:10052000F60162E070E0C8010E94F601872D8A950D
:10053000F1F7F50183A190E0E822F92281E0EF28AC
:1005400009F080E08883B401C8010E94F601229678
:10055000F3E0CB34DF0719F6DF91CF911F910F91B4
:10056000FF90EF90DF90CF90BF90AF909F908F90D3
:100570007F90089588248394912C892B69F282E0DE
:10058000882E912CC9CF0895009789F0FC01238112
:10059000621B67FD09C0062E000C770B948181E079
:1005A0009617170609F00CF480E08170089580E03A
:1005B0000895FC01892B71F18181481758F59281CA
:1005C000291740F59381A62FA91BA7FD23C00A2E4A
:1005D000000CBB0B94819A171B06E1F0DCF0622F34
:1005E0000E94FA05480F858190E0BD010E94030634
:1005F000242F269526952695E80FF91FE20FF11D69
:10060000868190E0477002C0959587954A95E2F7FC
:100610008170089580E00895CF93DF93EC010E94EC
:1006200069009E0150E040E062E17AE780E090E0FE
:100630000E94280630934E0320934D03DF91CF9103
:10064000089580914B0390914C030E947800809113
:100650004B0390914C0320914D0330914E03820F38
:10066000931F90934C0380934B030895692F0C9430
:10067000A20041E0611101C040E0692F0C948C00A0
:100680000C9439035F926F927F928F929F92AF92F8
:10069000BF92CF92DF92EF92FF920F931F93CF936F
:1006A000DF93662E572E742E982E892EB62EA72EE7
:1006B000062E000C770BE82F082E000CFF0B8B0189
:1006C0000E1B1F0B252D052C000C330B492F092E5B
:1006D000000C550BE901C41BD50B17FF59C0DD24D5
:1006E000DA94D7FD02C0DD24D3948F01061B170BCB
:1006F000CC24CA94D7FF03C0EA01C21BD30B0C174A
:100700001D076CF1780117FF03C08FEFE81AF80A94
:10071000F594E794A92E961014C0672D8B2D9A2D71
:10072000DF91CF911F910F91FF90EF90DF90CF90CD
:10073000BF90AF909F908F907F906F905F900C9440
:100740003903672D892D9A2D0E943903EC1AFD0A71
:10075000F7FE03C0E00EF11EAD0C9C0CDCCF7E0159
:10076000D7FF03C09FEFE91AF90AF594E794B82E72
:10077000851499F2672D8B2D982D0E943903E01A6C
:10078000F10AF7FE03C0EC0EFD1EBC0C8D0CF0CF81
:10079000CC24C394DD24DA94D7FDAECFDD24D394EA
:1007A000AECFFF920F931F93CF93DF93D82FF92EE5
:1007B000162FC72F042F792F0E944203402F6D2F31
:1007C0007C2F8D2F9F2D0E944203402F612F7C2F65
:1007D000812F9F2D0E944203402F612F7C2F8D2F50
:1007E0009C2FDF91CF911F910F91FF900C944203AA
:1007F0000E94CA00E0E0F1E0118A14860895DF92B9
:10080000EF92FF920F931F93CF93DF93D82E7B012C
:10081000162F0F2D8091020190910301C0E00197E6
:1008200051F11E2D1C0FE0910801F0910901818109
:10083000C81708F45CC0C0E0E0910801F09109011C
:100840008281C81708F455C01F5F27C02D2F4C2F79
:100850006D2D0E94D902682F8E2D8D0F902F0E9432
:100860003903DF5F8091080190910901FC01228129
:10087000D21760F3CF5F0F2D0C1BE0910801F091B0
:1008800009018181C81798F0C0E0E0910801F0915A
:1008900009018281C81768F00150812F902FDF91E4
:1008A000CF911F910F91FF90EF90DF900895D0E0CE
:1008B000D9CF60E08E2D8C0F902F0E943903CF5F2F
:1008C000E4CF2D2F4C2F6D2D0E94D902682F812F40
:1008D0009F2D9D0F0E943903DF5F80910801909149
:1008E0000901FC012281D21760F3CF5F9ACFD0E0DB
:1008F000F4CF60E0812F9F2D9C0F0E943903CF5FC2
:100900009BCF0F931F93CF938C01C0E0F80181918F
:100910008F01882341F00E94FF03BC01CF5F853027
:1009200014F477FFF3CF8C2FCF911F910F9108957F
:100930000F931F93CF93DF938C019B0110920C01B7
:1009400040930D0110921001C0910801D09109014E
:10095000209709F444C089816091060170910701D4
:1009600090E00E940306BC0180910A0190910B0166
:100970000E941406CB016AE070E00E940306909387
:100980000F0180930E01309305012093040140E292
:1009900050E0B80181E191E00E9469068091000178
:1009A000909101010197D9F4F80101900020E9F735
:1009B0003197BF01601B710B89818F5F0E94FA051F
:1009C0008150209102013091030195E021303105E1
:1009D00009F497E0981718F48EEF80931001DF91D7
:1009E000CF911F910F910895209102013091030141
:1009F00070E02130310509F476E04FEF60E00C94AF
:100A0000980490E0909307018093060108959093D5
:100A100001018093000108959093030180930201E6
:100A200008959093090180930801089580914F03E0
:100A30009091500301969093500380934F0320911F
:100A40000E0130910F018217930708F441C01092F4
:100A5000500310924F03E0910C01F0E0E050FF4F83
:100A60008189811109C080910D01823088F1815006
:100A700080930D0110920C0180910C0190E0FC011B
:100A8000E050FF4F2189222319F14091000150913C
:100A900001012091100141155105E1F0413051054E
:100AA00051F1809110018F5F80931001082E000C8E
:100AB000990BE0910801F09109012181281719068D
:100AC0003CF41092100180910C018F5F80930C0117
:100AD0000C94B6002111E5CF6091040170910501DD
:100AE0008F5E9E4F0E94810490910C019150890F5E
:100AF00080930C01D6CF6091040170910501409163
:100B00000201509103014130510531F4720F8F5EA3
:100B10009E4F0E948104C5CF621BF9CFCF93DF9314
:100B2000C0E0D1E09B878A870E94D20084E190E0F8
:100B30009F838E83DF91CF910C94F8030F92CDB7F2
:100B4000DEB70E9459008CE291E00E948E0581E39D
:100B500091E00E9411058AE00E94010590E080E08A
:100B60000E9407050E94C3020E9491018CE291E05D
:100B70000E940C0384E393E00E94F40410E000E080
:100B80000E9421030E9416050E945A0283E00E94DF
:100B90002A02882319F081E00E94030181E00E946B
:100BA0002A02882319F082E00E940301CE010196F7
:100BB0000E942C017C0181E0E816F104B1F48981E6
:100BC000882359F0813071F087010F5F1F4F07397B
:100BD0001105B4F20E94F803D1CF86E393E00E949E
:100BE000F404F2CF88E393E0FACF0115110541F246
:100BF0007801EACF002480FD060E660F11F086957D
:100C0000D1F7802D08950024552704C0080E591FE0
:100C1000880F991F009729F076956795B8F37105AD
:100C2000B9F7802D952F0895AA1BBB1B51E107C072
:100C3000AA1FBB1FA617B70710F0A61BB70B881F6C
:100C4000991F5A95A9F780959095BC01CD010895FB
:100C5000052E97FB1EF400940E943F0657FD07D017
:100C60000E94470607FC03D04EF40C943F065095B3
:100C70004095309521953F4F4F4F5F4F0895909588
:100C80008095709561957F4F8F4F9F4F0895A1E29A
:100C90001A2EAA1BBB1BFD010DC0AA1FBB1FEE1FF6
:100CA000FF1FA217B307E407F50720F0A21BB30B41
:100CB000E40BF50B661F771F881F991F1A9469F7BD
:100CC00060957095809590959B01AC01BD01CF0119
:100CD0000895FB01DC014150504048F001900D9215
:100CE0000020C9F701C01D9241505040E0F708951F
:040CF000F894FFCFA6
:100CF40000000000000014000000000000000000DC
:100D040000000000000000000000000000000000DF
:100D140000000000000000000000000000000000CF
:100D240000010507205F050000000000C61863806D
:100D3400014A290000004A7DF59502C417471F01A6
:100D44006322223206261551930586080000008886
:100D5400082108028220848800805457090080906A
:100D64004F0800000060880000800F0000000000B1
:100D74008C0100222202002EE63AA303C41042880A
:100D8400032E4244C4072E4207A30388A9F4110288
:100D94003F8407A3032E8617A3033F424408012E72
:100DA4004617A3032E460FA303C018600C00C018F7
:100DB4006088008888200802007CF0010082208876
:100DC40088002E424400012E425BAB0344C51F63DE
:100DD400042FC617E3032E8610A2032FC618E303BD
:100DE4003F8417C2073F841742002E861EA3073193
:100DF400C61F63048E10428803104218A303319562
:100E0400515204218410C20771D71A630471D61C8D
:100E140063042EC618A3032FC61742002EC6589388
:100E2400052FC61763042E0607A3039F104208016B
:100E340031C618A30331C618150131C65AAB0231A5
:100E44002AA26204312A4208011F2222C2072784EF
:100E540010C20120088220000E2184900344450022
:100E64000000000000C00782200000000038E8A352
:100E74000721B419E30300B810A20310DA1CA30776
:100E840000B8F883034C8A238400C0C7E8A1032177
:100E9400B41963040418428803083084920121A41D
:100EA400324A02861042880300AC5A630400B41923
:100EB400630400B818A30300BCF8420000D8EC2176
:100EC4000400B419420000B8E0E003421C212403EA
:100ED40000C418B30500C418150100C45AAB0200BD
:100EE4004445540400C4E8A103007C44C4078810AA
:100EF4004108028410420801821044880000888A54
:100F04000000034000800310038003200040002001
:100F140000100008000400020001038003400320C5
:0A0F24000080031023002A004000A3
:00000001FF
