:100000000C943A000C9457000C9457000C94570031
:100010000C9457000C9457000C9457000C94570004
:100020000C9457000C9457000C9457000C945700F4
:100030000C9457000C9457000C9457000C945700E4
:100040000C9457000C9457000C9457000C945700D4
:100050000C9457000C9457000C9457000C945700C4
:100060000C9457000C9457000C9457000C945700B4
:100070000C94570011241FBECFEFD4E0DEBFCDBFDC
:1000800011E0A0E0B1E0E2E6F2E002C005900D92DE
:10009000A831B107D9F721E0A8E1B1E001C01D9274
:1000A000AC31B207E1F70E94C2000C942F010C940E
:1000B0000000FC01FF2784A1892B84A325A1892F9F
:1000C0008095822385A381E00895E1E6F0E080E851
:1000D00080831082A89584B7877F84BFE0E6F0E034
:1000E000808188618083108208951092800084E06E
:1000F0008093810010928500109284000895809171
:100100008400909185000895AC01809184009091C5
:1001100085009C01241B350B283E3340B0F7089521
:100120002091840030918500820F931F0C948400ED
:10013000CF93DF93EC010E9475009E0150E040E0F8
:1001400062E17AE780E090E00E94EE0030931B01CC
:1001500020931A01DF91CF91089580911801909119
:1001600019010E9484008091180190911901209139
:100170001A0130911B01820F931F909319018093F4
:10018000180108950E946500CAE0D1E088E1E82ED8
:1001900081E0F82E09911991C8010E945900F801D7
:1001A000FF2785A1812B85A3EC16FD0699F7C0E0FA
:1001B000D1E009911991C8010E945900F801FF2767
:1001C00085A1812B85A381E0CA30D80791F72D98AE
:1001D0002F988AE090E00E949800FFCF052E97FBB1
:1001E0001EF400940E94050157FD07D00E940D01E6
:1001F00007FC03D04EF40C940501509540953095C2
:1002000021953F4F4F4F5F4F089590958095709582
:1002100061957F4F8F4F9F4F0895A1E21A2EAA1B21
:10022000BB1BFD010DC0AA1FBB1FEE1FFF1FA217A6
:10023000B307E407F50720F0A21BB30BE40BF50BA3
:10024000661F771F881F991F1A9469F7609570952C
:10025000809590959B01AC01BD01CF010895F89464
:02026000FFCFCE
:1002620003400080031003800320004000200010A0
:08027200000800040002000175
:00000001FF
