:100000000C943A000C9444000C9444000C9444006A
:100010000C9444000C9444000C9444000C94440050
:100020000C9444000C9444000C9444000C94440040
:100030000C9444000C9444000C9444000C94440030
:100040000C9444000C9444000C9444000C94440020
:100050000C9444000C9444000C9444000C94440010
:100060000C9444000C9444000C9444000C94440000
:100070000C94440011241FBECFEFD4E0DEBFCDBFEF
:100080000E9484000C94A1000C940000E1E6F0E0D2
:1000900080E880831082A89584B7877F84BFE0E6DC
:1000A000F0E0808188618083108208951092800042
:1000B00084E080938100109285001092840008955E
:1000C00080918400909185000895AC018091840016
:1000D000909185009C01241B350B283E3340B0F7DE
:1000E00008952091840030918500820F931F0C9415
:1000F0006500811105C0662311F0429A0895429867
:1001000008953A9A429A08950E9446000E94560025
:100110000E9481000E946000EC0161E080E00E948A
:100120007900CE01875F924C0E946500EC0160E08F
:1001300080E00E947900CE018357944A0E946500B6
:06014000EBCFF894FFCFA5
:00000001FF
