:100000000C943A000C9444000C9444000C9444006A
:100010000C9444000C9444000C9444000C94440050
:100020000C9444000C9444000C9444000C94440040
:100030000C9444000C9444000C9444000C94440030
:100040000C9444000C9444000C9444000C94440020
:100050000C9444000C9444000C9444000C94440010
:100060000C9444000C9444000C9444000C94440000
:100070000C94440011241FBECFEFD4E0DEBFCDBFEF
:100080000E9478000C949F000C940000E1E6F0E0E0
:1000900080E880831082A89584B7877F84BFE0E6DC
:1000A000F0E08081886180831082089521E030E053
:1000B00002C0220F331F6A95E2F790E08223932358
:1000C00008950895FC01908121E030E001C0220FE5
:1000D0006A95EAF7922790830895FC01908121E0C8
:1000E00030E001C0220F6A95EAF7922B90830895C1
:1000F00062E087E290E00E946D008AB167E00E94B2
:10010000610084E088B9C0E0D0E010E089B167E028
:100110000E945600892B71F0D5364CF0111107C0A2
:1001200062E088E290E00E946200D0E011E0DF5FD0
:10013000CF5FECCFC536DCF3C0E010E0F8CFF89429
:02014000FFCFEF
:00000001FF
