:100000000C943A000C944C000C944C000C944C0052
:100010000C944C000C944C000C944C000C944C0030
:100020000C944C000C944C000C944C000C944C0020
:100030000C944C000C944C000C944C000C944C0010
:100040000C944C000C944C000C944C000C944C0000
:100050000C944C000C944C000C944C000C944C00F0
:100060000C944C000C944C000C944C000C944C00E0
:100070000C944C0011241FBECFEFD4E0DEBFCDBFE7
:1000800021E0A0E0B1E001C01D92A430B207E1F789
:100090000E94AB000C9401010C940000E1E6F0E03A
:1000A00080E880831082A89584B7877F84BFE0E6CC
:1000B000F0E0808188618083108208951092800032
:1000C00084E080938100109285001092840008954E
:1000D00080918400909185000895AC018091840006
:1000E000909185009C01241B350B283E3340B0F7CE
:1000F00008952091840030918500820F931F0C9405
:100100006D00CF93DF93EC010E945E009E0150E0F2
:1001100040E062E17AE780E090E00E94C000309326
:10012000030120930201DF91CF9108958091000196
:10013000909101010E946D00809100019091010158
:100140002091020130910301820F931F90930101CE
:100150008093000108950E944E00549A5C98569A2C
:100160005E9A80E793E00E948100D0E1C0E40E94A3
:1001700096008BB18D278BB98BB18C278BB9F7CFBC
:10018000052E97FB1EF400940E94D70057FD07D060
:100190000E94DF0007FC03D04EF40C94D70050956A
:1001A0004095309521953F4F4F4F5F4F0895909563
:1001B0008095709561957F4F8F4F9F4F0895A1E275
:1001C0001A2EAA1BBB1BFD010DC0AA1FBB1FEE1FD1
:1001D000FF1FA217B307E407F50720F0A21BB30B1C
:1001E000E40BF50B661F771F881F991F1A9469F798
:1001F00060957095809590959B01AC01BD01CF01F4
:060200000895F894FFCF01
:00000001FF
