:100000000C943A000C9457000C9457000C94570031
:100010000C9457000C9457000C9457000C94570004
:100020000C9457000C9457000C9457000C945700F4
:100030000C9457000C9457000C9457000C945700E4
:100040000C9457000C9457000C9457000C945700D4
:100050000C9457000C9457000C9457000C945700C4
:100060000C9457000C9457000C9457000C945700B4
:100070000C94570011241FBECFEFD4E0DEBFCDBFDC
:1000800013E0A0E0B1E0ECE8FEE002C005900D92C4
:10009000A834B107D9F723E0A8E4B3E001C01D926A
:1000A000AF35B207E1F70E94B2060C9444070C94F6
:1000B000000080914A038F5B0C94AE000C94F40511
:1000C0000E94230384E00E94F302882381F0809140
:1000D0004A0390914B03892B51F481E090E0909377
:1000E0004B0380934A0381E493E00C94D205089576
:1000F0000E94A400882339F10E94A600082E000C5B
:10010000990B8154910983309105E8F420914803BB
:100110003091490328173907B1F090934903809330
:10012000480320914A0330914B03232B61F401973C
:1001300051F482E090E090934B0380934A0383E470
:1001400093E00C94D20508950C94DE010C94FF0109
:100150000C94E4010C94EA010C94F0010E94F0016B
:100160000E94EA018823E1F38CE291E00197F1F724
:100170000E94DE0181110C94A60008950C940602E1
:10018000CF93DF9300D00F92CDB7DEB780911303EA
:1001900090911403A091150389839A83AB83509A9D
:1001A000589A0E94B1018FE690E00E94480181E0D8
:1001B00090E00E94A00161E070E081E090E00E9488
:1001C0008D010E947901CE0101960E94C6010F9017
:1001D0000F900F90DF91CF910895CF93DF93DC01C3
:1001E000FB0160E080E0C1E0D0E0841305C0F901CC
:1001F0006083DF91CF9108959191BE01092E02C0D5
:10020000660F771F0A94E2F76F5F7F4F76956795C9
:100210006A0F7B1F02C0769567959A95E2F76F3F4C
:10022000710529F320F38F5FE0CFE1E6F0E080E88D
:1002300080831082A89584B7877F84BFE0E6F0E0D2
:10024000808188618083108208951092800084E00C
:10025000809381001092850010928400089580910F
:100260008400909185000895AC0180918400909164
:1002700085009C01241B350B283E3340B0F70895C0
:100280002091840030918500820F931F0C943401DB
:10029000CF93DF930F92CDB7DEB79E012F5F3F4F15
:1002A00045E066E173E00E94ED0091E0980F9093C5
:1002B00000019981915097BD18BC95B5977039F0A0
:1002C00025B5909100019770287F922B95BD2981CB
:1002D00030E0E82FF0E0EA5EFC4F8081A90102C027
:1002E000440F551F8A95E2F7CA010F90DF91CF9115
:1002F000089585B3897F85BB95B58091000187708E
:10030000987F892B85BD089585B5887F85BD089523
:1003100085B382FB882780F90895009719F001972B
:1003200051F0089584B58F736295660F660F607CF7
:10033000682B64BD089584B5629560738F7CF8CF97
:10034000009721F0019739F080E0089584B58C7F03
:1003500084BD81E0089584B58E7F84BD84B58260BC
:10036000F7CF14BC15BC16BC18BC84B58E7F84BDF9
:1003700084B5826084BD81E008959C0121503109DB
:100380003093CD0081508093CC000895CF93DF93BC
:10039000EC01888199810E94BD018A819BEF980FB1
:1003A000943008F088E098E19093C9008550880F58
:1003B0008093CA0081E0DF91CF9108958091C800B9
:1003C000881F8827881F08958091C80085FB88278B
:1003D00080F908958091C80086FB882780F90895E8
:1003E000CF93C82F0E94E4018823E1F38091C800D5
:1003F00080648093C800C093CE00CF91089580910F
:10040000C80087FFFCCF8091CE000895CF93DF9383
:10041000EC018991811103C0DF91CF9108950E9471
:10042000F001F7CF853098F4673088F421E030E0B0
:1004300001C0220F6A95EAF7E82FF0E0E35BFC4F7A
:10044000822F8095908189234111822B808308958A
:10045000853080F4673070F4E82FF0E0E35BFC4F08
:1004600081E090E001C0880F6A95EAF790819823B7
:1004700081E009F480E0089560914C03E62FF0E0FC
:10048000E35BFC4F80810E94890280914C038F5F67
:10049000853018F480934C03089510924C0308950E
:1004A000EDE4F3E010821182128213821482089527
:1004B0000E9467020C9450029C01FC01FF2784A15A
:1004C000832B84A395A1932B95A381E00895CF93CB
:1004D000DF93C5E2D3E0899199910E945C0283E0A9
:1004E000C333D807C1F783E090E40E945C0280E048
:1004F00090E80E945C0283E090E10E945C0283E04D
:1005000090E80E945C0283E090E2DF91CF910C942E
:100510005C02E0915203F0E0EE0FFF1FE55EFC4F3E
:1005200020813181F901FF2795A1932B95A3A5E2A5
:10053000B3E043E353E02D913D91F901FF2780FFA4
:100540001BC025A1932F9095922395A386954A17BA
:100550005B0789F7E62FF0E0EE0FFF1FE55EFC4F2B
:1005600020813181F901FF2795A1832F809589236F
:1005700085A360935203089595A1932BE6CF623033
:10058000710551F128F461307105E1F080E00895C2
:100590006330710559F064307105C1F7FC01FF2724
:1005A00084A1892B84A385A1892B09C0FC01FF2785
:1005B00084A1892B84A325A1892F8095822385A3DB
:1005C00081E00895FC01FF2724A1892F809528232D
:1005D00024A395A18923F3CFFC01FF2724A1892F10
:1005E00080958223DFCFE82FF0E0EE0FFF1FED5A5A
:1005F000FC4F8081882329F0818191E089278170D7
:10060000089580E0FCCFE82FF0E0EE0FFF1FED5AD9
:10061000FC4F8081811103C081818170089580E049
:10062000FCCFE82FF0E0EE0FFF1FED5AFC4F80816A
:100630000895E82FF0E0EE0FFF1FED5AFC4F908178
:1006400081E0892708957F928F929F92AF92BF9207
:10065000CF92DF92EF92FF920F931F93CF93DF938E
:10066000C3E5D3E053E3C52E53E0D52E66E0762EE6
:1006700088818983F601019111916F015801BB2492
:10068000F50124A1E12EFF2485A190E08E219F2178
:1006900030E02E213F21232BB1F133E0832E912C2A
:1006A000892B19F094E0892E912C64E070E0C80148
:1006B0000E94BF0262E070E0C8010E94BF02872D65
:1006C0008A95F1F7F50183A190E0E822F92281E013
:1006D000EF2809F080E08883B401C8010E94BF02BE
:1006E0002296F3E0CD35DF0719F6DF91CF911F9108
:1006F0000F91FF90EF90DF90CF90BF90AF909F90C1
:100700008F907F90089588248394912C892B69F28F
:1007100082E0882E912CC9CF0895009789F0FC01C2
:100720002381621B67FD09C0062E000C770B9481A4
:1007300081E09617170609F00CF480E081700895A7
:1007400080E00895FC01892B71F18181481758F5EB
:100750009281291740F59381A62FA91BA7FD23C0DD
:100760000A2E000CBB0B94819A171B06E1F0DCF0FB
:10077000622F0E94FB06480F858190E0BD010E9418
:100780000407242F269526952695E80FF91FE20FDA
:10079000F11D868190E0477002C0959587954A9536
:1007A000E2F78170089580E00895182F092FF62E42
:1007B0000E9425010E942F01C12FD02F8E819F8181
:1007C0000E943401E881F9818A819B8109958E819B
:1007D0009F812C813D81820F931F9F838E830E9476
:1007E0002F01DC01E12FF02F6FEF7FEF90E09F11E1
:1007F00005C05C2F4D2FC52FD42FE0CF5E2F4F2F7C
:10080000268137816D01C21AD30A8FEFC8168FE790
:10081000D80688F32A1B3B0B2617370710F4B901BB
:10082000EF019F5F3896E3CF692F0C94280241E0D7
:10083000611101C040E0692F0C9412020C9417045E
:100840005F926F927F928F929F92AF92BF92CF9260
:10085000DF92EF92FF920F931F93CF93DF93662E59
:10086000572E742E982E892EB62EA72E062E000CEB
:10087000770BE82F082E000CFF0B8B010E1B1F0BB4
:10088000252D052C000C330B492F092E000C550B80
:10089000E901C41BD50B17FF59C0DD24DA94D7FD3D
:1008A00002C0DD24D3948F01061B170BCC24CA94FD
:1008B000D7FF03C0EA01C21BD30B0C171D076CF155
:1008C000780117FF03C08FEFE81AF80AF594E79450
:1008D000A92E961014C0672D8B2D9A2DDF91CF91E4
:1008E0001F910F91FF90EF90DF90CF90BF90AF904E
:1008F0009F908F907F906F905F900C941704672D5E
:10090000892D9A2D0E941704EC1AFD0AF7FE03C0E8
:10091000E00EF11EAD0C9C0CDCCF7E01D7FF03C0B6
:100920009FEFE91AF90AF594E794B82E851499F225
:10093000672D8B2D982D0E941704E01AF10AF7FEFF
:1009400003C0EC0EFD1EBC0C8D0CF0CFCC24C39468
:10095000DD24DA94D7FDAECFDD24D394AECFFF9261
:100960000F931F93CF93DF93D82FF92E162FC72FF6
:10097000042F792F0E942004402F6D2F7C2F8D2F64
:100980009F2D0E942004402F612F7C2F812F9F2DAF
:100990000E942004402F612F7C2F8D2F9C2FDF91F0
:1009A000CF911F910F91FF900C9420040E94500250
:1009B000E1E0F1E0118A14860895DF92EF92FF9250
:1009C0000F931F93CF93DF93D82E7B01162F0F2DFC
:1009D0008091030190910401C0E0019751F11E2D17
:1009E0001C0FE0910901F0910A018181C81708F4F8
:1009F0005CC0C0E0E0910901F0910A018281C81752
:100A000008F455C01F5F27C02D2F4C2F6D2D0E945D
:100A1000A203682F8E2D8D0F902F0E941704DF5F89
:100A20008091090190910A01FC012281D21760F3A3
:100A3000CF5F0F2D0C1BE0910901F0910A0181811C
:100A4000C81798F0C0E0E0910901F0910A01828195
:100A5000C81768F00150812F902FDF91CF911F911F
:100A60000F91FF90EF90DF900895D0E0D9CF60E034
:100A70008E2D8C0F902F0E941704CF5FE4CF2D2F67
:100A80004C2F6D2D0E94A203682F812F9F2D9D0F4B
:100A90000E941704DF5F8091090190910A01FC0117
:100AA0002281D21760F3CF5F9ACFD0E0F4CF60E01D
:100AB000812F9F2D9C0F0E941704CF5F9BCF0F9318
:100AC0001F93CF938C01C0E0F80181918F0188239F
:100AD00041F00E94DD04BC01CF5F853014F477FF44
:100AE000F3CF8C2FCF911F910F9108950F931F93E8
:100AF000CF93DF938C019B0110920D0140930E0167
:100B000010921101C0910901D0910A01209709F4B6
:100B100044C08981609107017091080190E00E94B2
:100B20000407BC0180910B0190910C010E942107E8
:100B3000CB016AE070E00E9404079093100180935B
:100B40000F01309306012093050140E250E0B80107
:100B500082E191E00E9435078091010190910201AC
:100B60000197D9F4F80101900020E9F73197BF010E
:100B7000601B710B89818F5F0E94FB068150209161
:100B800003013091040195E02130310509F497E02B
:100B9000981718F48EEF80931101DF91CF911F9178
:100BA0000F910895209103013091040170E02130EC
:100BB000310509F476E04FEF60E00C94760590E0A3
:100BC0009093080180930701089590930201809308
:100BD0000101089590930401809303010895909377
:100BE0000A0180930901089580915D0390915E034D
:100BF000019690935E0380935D0320910F013091E5
:100C000010018217930708F441C010925E031092FE
:100C10005D03E0910D01F0E0EF5FFE4F81898111EE
:100C200009C080910E01823088F1815080930E01BD
:100C300010920D0180910D0190E0FC01EF5FFE4FDD
:100C40002189222319F14091010150910201209143
:100C5000110141155105E1F04130510551F18091EB
:100C600011018F5F80931101082E000C990BE09108
:100C70000901F0910A012181281719063CF410920C
:100C8000110180910D018F5F80930D010C943C0246
:100C90002111E5CF60910501709106018E5E9E4F96
:100CA0000E945F0590910D019150890F80930D0175
:100CB000D6CF6091050170910601409103015091DA
:100CC00004014130510531F4720F8E5E9E4F0E9437
:100CD0005F05C5CF621BF9CFCF93DF93C1E0D1E0B1
:100CE0009B878A870E94580284E190E09F838E83CD
:100CF000DF91CF910C94D604CF93DF9300D000D036
:100D0000CDB7DEB7582FFB0180913D0390913E0394
:100D1000A0913F03B091400389839A83AB83BC8346
:100D200030E0A1E0B0E0AC0FBD1FA30FB11D2C91CE
:100D3000211108C010820F900F900F900F90DF913B
:100D4000CF910895852F622F0E941507411104C08D
:100D5000521710F4213021F4805D8193592F41E026
:100D60003F5FDFCFCDB7DEB7A0970FB6F894DEBFF9
:100D70000FBECDBFFE0133968EE1DF011D928A9535
:100D8000E9F78EE590E09A8389838CE990E09E8371
:100D90008D8388E790E09A8789878AE196E09E872D
:100DA0008D8729E530E03A8B298B9E8B8D8B20E651
:100DB00030E03A8F298F9E8F8D8F0E9415010E94FF
:100DC000C00088EC90E00E946C0682E391E00E94F3
:100DD000EF0585E493E00E94D20564E0CE01019620
:100DE0000E94D50390E080E0A0960FB6F894DEBF95
:100DF0000FBECDBF0895002480FD060E660F11F0D2
:100E00008695D1F7802D08950024552704C0080E3B
:100E1000591F880F991F009729F076956795B8F3A9
:100E20007105B9F7802D952F0895991B79E004C0BD
:100E3000991F961708F0961B881F7A95C9F7809519
:100E40000895AA1BBB1B51E107C0AA1FBB1FA61711
:100E5000B70710F0A61BB70B881F991F5A95A9F763
:100E600080959095BC01CD010895FB01DC014150B6
:100E7000504048F001900D920020C9F701C01D922A
:0C0E800041505040E0F70895F894FFCF77
:100E8C000100000000000014000000000000000041
:100E9C000000000000000000000000000000000046
:100EAC000000000000000000000000000000000036
:100EBC000000010507205F050000000000C6186354
:100ECC0080014A290000004A7DF59502C417471F8E
:100EDC000163222232062615519305860800000074
:100EEC0088082108028220848800805457090080D9
:100EFC00904F0800000060880000800F0000000088
:100F0C00008C0100222202002EE63AA303C41042F8
:100F1C0088032E4244C4072E4207A30388A9F41168
:100F2C00023F8407A3032E8617A3033F4244080104
:100F3C002E4617A3032E460FA303C018600C00C047
:100F4C00186088008888200802007CF0010082204C
:100F5C008888002E424400012E425BAB0344C51F1F
:100F6C0063042FC617E3032E8610A2032FC618E3C3
:100F7C00033F8417C2073F841742002E861EA30727
:100F8C0031C61F63048E10428803104218A303312C
:100F9C0095515204218410C20771D71A630471D67B
:100FAC001C63042EC618A3032FC61742002EC65866
:100FBC0093052FC61763042E0607A3039F10420840
:100FCC000131C618A30331C618150131C65AAB023C
:100FDC00312AA26204312A4208011F2222C20727A9
:100FEC008410C20120088220000E21849003444505
:100FFC00000000000000C00782200000000038E85C
:10100C00A30721B419E30300B810A20310DA1CA340
:10101C000700B8F883034C8A238400C0C7E8A103F7
:10102C0021B4196304041842880308308492012106
:10103C00A4324A02861042880300AC5A630400B4FE
:10104C0019630400B818A30300BCF8420000D8ECE4
:10105C00210400B419420000B8E0E003421C212432
:10106C000300C418B30500C418150100C45AAB0220
:10107C00004445540400C4E8A103007C44C4078820
:10108C001041080284104208018210448800008834
:10109C008A0000D00008000306080A034000800301
:1010AC001003800320004000200010000800040002
:1010BC0002000103800340032000800310640A0136
:0810CC00003100320035000084
:00000001FF
