:100000000C943A000C9457000C9457000C94570031
:100010000C9457000C9457000C9457000C94570004
:100020000C9457000C9457000C9457000C945700F4
:100030000C9457000C9457000C9457000C945700E4
:100040000C9457000C9457000C9457000C945700D4
:100050000C9457000C9457000C9457000C945700C4
:100060000C9457000C9457000C9457000C945700B4
:100070000C94570011241FBECFEFD4E0DEBFCDBFDC
:1000800012E0A0E0B1E0E8E1FEE102C005900D92CF
:10009000AA3CB107D9F723E0AAECB2E001C01D9257
:1000A000A438B207E1F70E94860D0C940A0F0C9455
:1000B0000000DC01E62F842F65E00E94EE0DE80FC2
:1000C000EA0FFB2FF11D20830895EF92FF920F930B
:1000D0001F93CF93DF938091EE0281114CC08CE28D
:1000E00091E00E94400D84EF91E00E94C30C81E0FA
:1000F00090E00E94B90C81E090E00E94BE0C8AE082
:100100000E94B30CC6EDD2E02EECE22E22E0F22EDD
:100110000AEC12E0CE010E941F03F7018193919334
:100120007F01F80111928F012696F2E0CE3EDF07A3
:1001300089F7E4E1F3E0119283E0E733F807D9F7B8
:100140006EE071E08091D0029091D1020E94C402D1
:1001500064E171E08091D4029091D5020E94C402C2
:100160006AE171E08091D2029091D3020E94C402B0
:1001700081E08093EE0280910C0190910D01039734
:1001800081F5C0EDD2E00BEC12E096EDE92E92E0A5
:10019000F92E899199910E94D702F80181938F01DC
:1001A000EC16FD06B1F700E084E1E82E83E0F82EBE
:1001B0009E2D8F2D10E0C92FD82FE991F0E0E65346
:1001C000FD4F6081812F902F0E94EB0A1F5F9C2FB3
:1001D0008D2F153081F7F5E0EF0EF11C0F5F073022
:1001E00039F7DF91CF911F910F91FF90EF900C9411
:1001F000C80C80911003909111030C94F8086115BC
:10020000710521F06130710549F008956DE972E0E2
:1002100080911003909111030C94CE0860EA72E073
:10022000F7CFEF92FF920F931F93CF93DF93CDB74A
:10023000DEB7AC970FB6F894DEBF0FBECDBF80918E
:10024000F102811129C00E94740761E080E00E94E0
:100250006C0742E050E067E373E090E080E00E94CA
:10026000C406809137038F3F21F410923703109218
:10027000380304E113E029E530E047E065E084E677
:1002800090E00E94E00370E060E08FEF90E00E9459
:10029000070481E08093F10280910C0190910D019F
:1002A0008230910509F471C080F4019709F45EC0B1
:1002B000AC960FB6F894DEBF0FBECDBFDF91CF91E5
:1002C0001F910F91FF90EF9008958330910551F0A9
:1002D000049771F78091F0028F5F8093F002883C61
:1002E00038F350C00E940E048111E2CF62EA72E03E
:1002F000CE0101960E949A0E8E010F5F1F4FF801EA
:10030000819181112FC00E94BE0640E0B8010E9479
:10031000500DF80181917F01811126C08FE2F80113
:1003200080830E94C10640E0B7010E94500D0E94E8
:10033000AA0BCE0101960E94A60C65E571E08091A2
:100340001003909111030E94CE081092F00261E018
:1003500080E00E946C0784E090E090930D01809310
:100360000C01A6CF8F01CBCF8701D3CF8DEA92E0CE
:100370000E94A60C6EE971E0809110039091110328
:100380000E94CE0885E090E0E8CF0E94AA0B809101
:1003900038038F5F809338038091370310E08330F8
:1003A000A1F138F5813061F1823069F104E083E038
:1003B0000E94D103802F0E94CE03812F0E94DD0373
:1003C0000E944B0642E050E067E373E090E080E07B
:1003D0000E94D90666EC72E080911003909111039F
:1003E0000E94CE0860E080E00E946C0783E090E00D
:1003F000B4CF843061F08530C9F6136002E009C0E3
:10040000126003E0D4CF1160FCCF1360FACF136009
:1004100003E084E0CDCFCF93DF93D62FC72FA7EC97
:10042000B2E09D9191110BC040E00E94500D0E94DE
:10043000AA0B8D2F9C2FDF91CF910C94A60CFB0162
:100440009193BF01EECFCF93DF93CDB7DEB7AC97DB
:100450000FB6F894DEBF0FBECDBF8091EF028111C1
:1004600005C00E94A70881E08093EF020E943E0829
:1004700081E00E940E088823C1F080910C019091C8
:100480000D018330910509F461C0069771F48091E4
:100490003703843018F48F5F80933703BE016F5F9A
:1004A0007F4F809137030E940B0283E00E940E0869
:1004B0008823C1F080910C0190910D01833091054A
:1004C00009F447C0069771F480913703823018F021
:1004D000815080933703BE016F5F7F4F8091370358
:1004E0000E940B0283E00E940E08882399F08091FD
:1004F0000C0190910D01059769F486E090E09093CE
:100500000D0180930C01BE016F5F7F4F8091370317
:100510000E940B0284E00E940E08882371F08091F3
:100520000C0190910D0185309105B1F08630910557
:10053000D1F0039711F40E941806AC960FB6F89408
:10054000DEBF0FBECDBFDF91CF9108950E9412068E
:10055000ACCF0E941506C6CF82E090E090930D01CB
:1005600080930C01EACF85E090E0F8CF80911203F0
:10057000909113030E944A0A882319F05C9A5E98AE
:1005800008955C985E9A0895FC01718360831282DD
:1005900013821482158281E00895FC01808191818B
:1005A0000895FC0112821382648381E00895FC01A6
:1005B000A081B181109709F440C082818F5F82834E
:1005C0009C91891730F0128285818F5F8830B0F45A
:1005D0008583928111968C911197981760F493817D
:1005E00013968C911397981730F481E02481149618
:1005F0009C91291708F080E081700895158283810D
:100600008F5F838312969C911297891710F3138240
:1006100084818F5F848315969C911597911109C0F1
:1006200014969C9114978917A0F21182108281E090
:100630000895891770F21482CCCF80E00895FC01F0
:100640001182108212821382148215820895CF9330
:10065000DF939B01A9E3B3E09E96ED91FC919F97F8
:10066000EC0149816881D0968D919C91DF91CF9169
:100670000994EF92FF920F931F93CF93DF93EC01B6
:10068000A0914503EA2EF12C40E0242F042E000C0B
:10069000330B2E153F0554F0F0E0E0E0CF01DF9181
:1006A000CF911F910F91FF90EF900895C90163E0E2
:1006B00070E00E94F70D8C01075C1C4FD801129668
:1006C0008C911297882369F0F8010C171D0749F0E7
:1006D0009C918881981305C011969C9189819817E7
:1006E000E9F24F5FD2CFCF93C82F70E060E08BE587
:1006F00093E00E94270380915B038C0F90915D0330
:1007000089176CF487FF02C08FEF890F80935B031A
:1007100061E070E08BE593E0CF910C94270380E0DB
:10072000F5CFE0916B03F0916C03309731F0BC0191
:1007300080916D0390916E0309940895DB01FC0193
:100740001282E9E3F3E081A5815081A786A18F5F42
:1007500086A312961C92129770E060E0CD010E9471
:10076000270390E080E00C94910380936603089542
:10077000E9E3F3E0682F70E082A593A50E94140ED0
:10078000768765870895E9E3F3E0682F70E082A536
:1007900093A50E94140E778F668F0895809365034A
:1007A0000895853008F084E08093450308958530EE
:1007B00008F084E080935603089580936F030895B2
:1007C0000F931F93CF93DF93C9E3D3E06CA34DA3A3
:1007D0003FA72EA719AB08AB9BA78AA71BAA1AAAEB
:1007E0008EA98C7F8EAB1FAA83E08C8782E08D8FD1
:1007F00080E10E94C30382E00E94B80384E08CA7DA
:1008000085E08DA7DF91CF911F910F910895E9E3C6
:10081000F3E093AB82AB75AB64AB08956F927F92BC
:100820009F92AF92BF92CF92DF92EF92FF920F937F
:100830001F93CF93DF938091590390915A030196B0
:1008400090935A0380935903209157033091580392
:100850008217930708F056C0E0907003EE2009F469
:1008600042C08091480390914903019690934903B7
:1008700080934803209146033091470382179307E2
:1008800090F11092490310924803C0E02C2F0C2ED7
:10089000000C330B809145038217130611F00CF006
:1008A00081C0F12C99249394CF2D0F2C000CDD0BDB
:1008B000809145038C171D0611F00CF087C08091C4
:1008C0006203C0916503811101C0C2E00E948A0EDB
:1008D0006C2F70E00E94280E2091450330E040E02C
:1008E000892B09F42AC18E2DDF91CF911F910F9191
:1008F000FF90EF90DF90CF90BF90AF909F907F9050
:100900006F90089510925A0310925903F12C0F2DF5
:100910000F2C000C110B809156038017110609F063
:100920000CF49ACFC80163E070E00E94F70DFC015F
:10093000E75CFC4F8389882329F1C80163E070E0FC
:100940000E94F70DEC01C65BDC4F918980915B033F
:10095000981305C0928980915C03981729F070E084
:1009600060E0CE010E942703C80163E070E00E94AE
:10097000F70DFC01E75CFC4F92899150928B97FF39
:1009800003C01A82F394C3CF63E070E0CE010E94EB
:100990002703CE010E9439030097A1F3BE010E94F4
:1009A0009E03F7CFC90163E070E00E94F70D875CFA
:1009B0009C4FDC0112968C911297882329F070E0ED
:1009C00060E0CD010E942703CF5F60CFCE0163E0DE
:1009D00070E00E94F70D8C01075C1C4FF8018281CA
:1009E000882309F486C081818F5F81830E948A0EEB
:1009F0008170880F3FEF380FE0916F03E1FF14C063
:100A000060915B03062E000C770BD8019C91432F5D
:100A1000032E000C550B490F511D97FD5A95641775
:100A2000750711F4392D381BCE0163E070E00E9488
:100A3000F70DDC01A75CBC4F2C91230F2C9327FDF5
:100A400004C080915D032817B4F0CE0163E070E02C
:100A50000E94F70DE0FF4FC0FC01E75CFC4F022E47
:100A6000000C330B37FF03C031952195310990916C
:100A70005D03921B9083CE0163E070E00E94F70D4E
:100A80008C01075C1C4FD80111969C9180915E03EC
:100A900098172CF462E070E0C8010E942703CE0191
:100AA00063E070E00E94F70D875C9C4FFC012181A0
:100AB000422F022E000C550B80915E03082E000C75
:100AC000990B0197481759070CF473C080915C0388
:100AD000821318C0809160038F5F809360039091B0
:100AE0006603891710F01092700381E090E00E9475
:100AF0009103F394D9CE875C9C4F330F231BFC01E9
:100B00002083B9CFD80112961C9280916203815044
:100B10008093620361E070E08BE593E00E9427031D
:100B2000E8CFCE0163E070E00E94F70DFC01E75CC6
:100B3000FC4F8281882349F04F5FC42F042E000CA4
:100B4000DD0BC217D3076CF3CECECE0163E070E0AD
:100B50000E94F70D8C01075C1C4F1182FF24F39457
:100B60000E948A0E9C01CE0163E070E00E94F70DA6
:100B7000FC01E75CFC4F60915D03062E000C770BD7
:100B8000C9010E94280E8083F282C8010E943903A5
:100B9000892B31F7809162038F5F8093620362E05B
:100BA00070E0C8010E9427039ECEBD01C8010E94CB
:100BB0009E03E09156036E2E712C40E0242F042EEC
:100BC000000C330B261537050CF093CFC90163E0F9
:100BD00070E00E94F70D875C9C4F5C01FC018389EB
:100BE0008823F1F0C90163E070E00E94F70DDC0199
:100BF000A65BBC4F0A171B0799F0CE0163E070E0BB
:100C00000E94F70D875C9C4F6C019189F6018081F1
:100C1000981306C0F5019289F6018181981729F28F
:100C20004F5FCCCF81E00C9473038FEF0C94730370
:100C30002091560330E040E0E42F042E000CFF0B1F
:100C4000E217F3070CF00895CF0163E070E00E9413
:100C5000F70DDC01A75CBC4F53968C91539788230A
:100C600011F04F5FE9CF80915B0390915C03529646
:100C70009C938E935197CF0163E070E00E94F70D33
:100C8000875C9C4F21E0FC01238B809161038F5F87
:100C90008093610308950F931F93CF93DF9300D048
:100CA000CDB7DEB710925A03109259031092490340
:100CB000109248032091560330E040E0842F042E28
:100CC000000C990B82179307A4F12091450330E0A3
:100CD00040E0842F042E000C990B821793079CF19F
:100CE00010E080915D0318170CF446C087FD8F5FFC
:100CF00085958E7F80935B0380915E038150809306
:100D00005C0361E070E08BE593E00E9427031092A2
:100D1000620310925F03109260031092610381E0FE
:100D2000809370030F900F90DF91CF911F910F91DF
:100D3000089563E070E00E94F70D875C9C4FFC0112
:100D4000138A4F5FBBCF63E070E00E94F70D875CB2
:100D50009C4FFC0112824F5FBCCF19830A8370E065
:100D600060E0CE0101960E9427030F5F80915E0331
:100D700008179CF31F5FB5CF00E0F8CF80915F03A9
:100D80000895809161030895FB019B01240F351F95
:100D9000E217F30711F4CA010895BC016F5F7F4F9A
:100DA000F999FECF92BD81BDF89A80B58193CB01B0
:100DB000EFCFFB019B01240F351FE217F30711F45E
:100DC000CA010895A191BC016F5F7F4FF999FECFD1
:100DD00092BD81BDA0BDFA9AF99ACB01EECFE1E6B2
:100DE000F0E080E880831082A89584B7877F84BF75
:100DF000E0E6F0E08081886180831082089510929F
:100E0000800084E08093810010928500109284001D
:100E1000089580918400909185000895AC0180919F
:100E20008400909185009C01241B350B283E3340A3
:100E3000B0F708952091840030918500820F931FB0
:100E40000C940E07853098F4673088F421E030E088
:100E500001C0220F6A95EAF7E82FF0E0EE58FC4F48
:100E6000822F8095908189234111822B8083089560
:100E7000853080F4673070F4E82FF0E0EE58FC4FD6
:100E800081E090E001C0880F6A95EAF7908198238D
:100E900081E009F480E0089560917103E62FF0E0AD
:100EA000EE58FC4F80810E94A407809171038F5FF0
:100EB000853018F48093710308951092710308959A
:100EC000E2E7F3E010821182128213821482089505
:100ED0000E9482070C946007811105C0662311F0FF
:100EE000429A0895429808953A9A429A08959C0128
:100EF000FC01FF2784A1832B84A395A1932B95A3A9
:100F000081E00895CF93DF93CAE7D2E08991999168
:100F10000E94770782E0C838D807C1F783E090E4E1
:100F20000E94770780E090E80E94770783E090E1D5
:100F30000E94770783E090E80E94770783E090E2C1
:100F4000DF91CF910C947707E0917703F0E0EE0FFB
:100F5000FF1FE059FD4F20813181F901FF2795A145
:100F6000932B95A3AAE7B2E048E852E02D913D917A
:100F7000F901FF2780FF1BC025A1932F9095922395
:100F800095A386954A175B0789F7E62FF0E0EE0FE9
:100F9000FF1FE059FD4F20813181F901FF2795A105
:100FA000832F8095892385A360937703089595A166
:100FB000932BE6CF6230710551F128F46130710551
:100FC000E1F080E008956330710559F064307105F7
:100FD000C1F7FC01FF2784A1892B84A385A1892B5C
:100FE00009C0FC01FF2784A1892B84A325A1892F97
:100FF0008095822385A381E00895FC01FF2724A129
:10100000892F8095282324A395A18923F3CFFC0160
:10101000FF2724A1892F80958223DFCFE82FF0E0DE
:10102000EE0FFF1FE858FC4F8081882329F0818153
:1010300091E089278170089580E0FCCFE82FF0E0EF
:10104000EE0FFF1FE858FC4F8081811103C08181A2
:101050008170089580E0FCCFE82FF0E0EE0FFF1FD5
:10106000E858FC4F80810895E82FF0E0EE0FFF1F55
:10107000E858FC4F908181E0892708957F928F92F4
:101080009F92AF92BF92CF92DF92EF92FF920F9317
:101090001F93CF93DF93C8E7D3E058E8C52E52E003
:1010A000D52E66E0762E88818983F6010191119113
:1010B0006F015801BB24F50124A1E12EFF2485A175
:1010C00090E08E219F2130E02E213F21232BB1F192
:1010D00033E0832E912C892B19F094E0892E912CEA
:1010E00064E070E0C8010E94DA0762E070E0C801C5
:1010F0000E94DA07872D8A95F1F7F50183A190E028
:10110000E822F92281E0EF2809F080E08883B40129
:10111000C8010E94DA072296F3E0C238DF0719F609
:10112000DF91CF911F910F91FF90EF90DF90CF90C3
:10113000BF90AF909F908F907F9008958824839464
:10114000912C892B69F282E0882E912CC9CF0895C9
:10115000FC018589968960EF70E00E94F70D9C0183
:101160008685648570E090E00E94F70DBC01660FF3
:10117000771F660F771FC9010E94140E63830895BD
:10118000CF93DF93EC01E989FA8940E06D858B8983
:101190009C8909951D86DF91CF910895CF93DF93A8
:1011A000EC0178876F837E836D831A8619861B8690
:1011B00084E0888B8C87CE010E94A808CE010E9413
:1011C000C0081982188281E08A83DF91CF91089547
:1011D000FC0166870C94A808FC016787089521E04C
:1011E000FC0185819681892B09F420E0822F0895E6
:1011F000EF92FF920F931F93CF93DF93EC010D813A
:101200001E810115110511F188819981009771F0F6
:10121000019799838883892BC9F4CE01DF91CF91FF
:101220001F910F91FF90EF900C94C0088A81882342
:1012300069F081508A83811109C0D801FC90F110B6
:101240000CC0CE010E94C0081E830D83DF91CF9198
:101250001F910F91FF90EF900895F8017181733203
:1012600031F10F5F1F4FD8012C912B3211F02D322D
:1012700009F50F5F1F4FF80180E030E08F01D801C2
:101280009D91AD0160ED690F6A30B0F0BEE3FB16D1
:1012900009F44CC0BF151CF19AE2F91609F45DC0BF
:1012A0009F1594F0A0E2FA12CFCFF12C73C00E5F1D
:1012B0001F4FD9CF20E0DFCF6AE00E94EE0D8053B0
:1012C000890F31E0FA01DACFBAE3FB1609F442C024
:1012D000ECE3FE12B9CF1A8709871B86AECF97E4DD
:1012E0009F1564F0A1E4FA160CF03FC0B0E4FB12C5
:1012F000ABCF882309F4A1CF8E8733C09BE5F912C9
:10130000A3CF2B85022E000C330B8150990B28178D
:10131000390709F492CF8F018191882309F48DCF89
:101320008B3509F48ACF8E33B1F787CF2B852F5FAA
:101330002B87811101C082E0022E000C330B821733
:10134000130609F00CF479CF09851A8501151105EA
:1013500009F073CF0F81188570CF882309F46DCF02
:101360008C87CE010E94A80868CFAF2DFF0CBB0B65
:10137000AF5ABD4F9C91733209F49F5F3111888B36
:101380002B3279F5945F88898F5F6CE00E94EE0DB7
:10139000F82EF90E91E09E1B8F01692F6E0F808150
:1013A00031968F32C9F3E62EEE0CEE0C8E32E9F454
:1013B0008E2D8695E80E8F01E989FA894F856F2D6C
:1013C0008B899C890995FD862C812A838B816E2DC2
:1013D00070E090E00E94F70D821B91099983888349
:1013E00033CF2D3281F69C50CECF8C3229F78F012E
:1013F000E694E2CFFC01CB01768B658B528B418B5F
:10140000348B238B24E62787158611821082128263
:1014100062E370E00E94F70D68EE73E00E94140E24
:10142000648384E0848788EC8687CF010895FC017B
:10143000618342830895DC01662311F0411106C0E7
:1014400011961C92119712961C9208956832F8F02A
:10145000E8EDE60F8E2F6CE00E94080E982F64EFE7
:101460000E94EE0DE80F15966D917C911697E60F90
:10147000F72FF11D8081915058F411968C9311979C
:10148000642F70E090E00E94F70D12969C930895EF
:101490008695F1CFFC0180818F5F808391818917D0
:1014A00008F0108281E020819281291708F080E005
:1014B0000895FC01748363835683458311821282ED
:1014C0000895009789F0FC012381621B67FD09C024
:1014D000062E000C770B948181E09617170609F011
:1014E0000CF480E08170089580E00895FC01892B60
:1014F00071F18181481758F59281291740F5938140
:10150000A62FA91BA7FD23C00A2E000CBB0B94819C
:101510009A171B06E1F0DCF0622F0E94EE0D480FD7
:10152000858190E0BD010E94F70D242F2695269518
:101530002695E80FF91FE20FF11D868190E04770B4
:1015400002C0959587954A95E2F78170089580E0ED
:101550000895182F092FF62E0E94FF060E940907F2
:10156000C12FD02F8E819F810E940E07E881F981C3
:101570008A819B8109958E819F812C813D81820F7B
:10158000931F9F838E830E940907DC01E12FF02FB8
:101590006FEF7FEF90E09F1105C05C2F4D2FC52F9F
:1015A000D42FE0CF5E2F4F2F268137816D01C21AD5
:1015B000D30A8FEFC8168FE7D80688F32A1B3B0B98
:1015C0002617370710F4B901EF019F5F3896E3CF74
:1015D000692F0C94380741E0611101C040E0692F88
:1015E0000C9422070C94EB0A5F926F927F928F9279
:1015F0009F92AF92BF92CF92DF92EF92FF920F93A2
:101600001F93CF93DF93662E572E742E982E892E1C
:10161000B62EA72E062E000C770BE82F082E000CF6
:10162000FF0B8B010E1B1F0B252D052C000C330B04
:10163000492F092E000C550BE901C41BD50B17FFD0
:1016400059C0DD24DA94D7FD02C0DD24D3948F0184
:10165000061B170BCC24CA94D7FF03C0EA01C21B98
:10166000D30B0C171D076CF1780117FF03C08FEF28
:10167000E81AF80AF594E794A92E961014C0672D7D
:101680008B2D9A2DDF91CF911F910F91FF90EF90AD
:10169000DF90CF90BF90AF909F908F907F906F9092
:1016A0005F900C94EB0A672D892D9A2D0E94EB0A0E
:1016B000EC1AFD0AF7FE03C0E00EF11EAD0C9C0C07
:1016C000DCCF7E01D7FF03C09FEFE91AF90AF5943A
:1016D000E794B82E851499F2672D8B2D982D0E94D2
:1016E000EB0AE01AF10AF7FE03C0EC0EFD1EBC0C7B
:1016F0008D0CF0CFCC24C394DD24DA94D7FDAECF8B
:10170000DD24D394AECFFF920F931F93CF93DF933B
:10171000D82FF92E162FC72F042F792F0E94F40AE5
:10172000402F6D2F7C2F8D2F9F2D0E94F40A402F6C
:10173000612F7C2F812F9F2D0E94F40A402F612F53
:101740007C2F8D2F9C2FDF91CF911F910F91FF90B8
:101750000C94F40A0E946007E0E2F1E0118A14861A
:101760000895DF92EF92FF920F931F93CF93DF9331
:10177000D82E7B01162F0F2D8091220190912301ED
:10178000C0E0019751F11E2D1C0FE0912801F0914E
:1017900029018181C81708F45CC0C0E0E0912801EC
:1017A000F09129018281C81708F455C01F5F27C036
:1017B0002D2F4C2F6D2D0E94760A682F8E2D8D0FA8
:1017C000902F0E94EB0ADF5F809128019091290100
:1017D000FC012281D21760F3CF5F0F2D0C1BE0912B
:1017E0002801F09129018181C81798F0C0E0E091AB
:1017F0002801F09129018281C81768F00150812FDA
:10180000902FDF91CF911F910F91FF90EF90DF907C
:101810000895D0E0D9CF60E08E2D8C0F902F0E94DC
:10182000EB0ACF5FE4CF2D2F4C2F6D2D0E94760A4F
:10183000682F812F9F2D9D0F0E94EB0ADF5F809103
:10184000280190912901FC012281D21760F3CF5F1A
:101850009ACFD0E0F4CF60E0812F9F2D9C0F0E94A3
:10186000EB0ACF5F9BCF0F931F93CF938C01C0E008
:10187000F80181918F01882341F00E94B10BBC01D6
:10188000CF5F853014F477FFF3CF8C2FCF911F916A
:101890000F9108950F931F93CF93DF938C019B01BA
:1018A00010922C0140932D0110923001C09128011B
:1018B000D0912901209709F444C0898160912601C3
:1018C0007091270190E00E94F70DBC0180912A01E0
:1018D00090912B010E94140ECB016AE070E00E94EF
:1018E000F70D90932F0180932E01309325012093C3
:1018F000240140E250E0B80181E391E00E94A10E92
:1019000080912001909121010197D9F4F801019073
:101910000020E9F73197BF01601B710B89818F5F50
:101920000E94EE0D8150209122013091230195E01B
:101930002130310509F497E0981718F48EEF809361
:101940003001DF91CF911F910F91089520912201D5
:101950003091230170E02130310509F476E04FEF3A
:1019600060E00C944A0C90E090932701809326014C
:10197000089590932101809320010895909323016D
:10198000809322010895909329018093280108955E
:1019900080918203909183030196909383038093B7
:1019A000820320912E0130912F018217930708F4B2
:1019B00041C01092830310928203E0912C01F0E069
:1019C000E05EFE4F8189811109C080912D01823036
:1019D00088F1815080932D0110922C0180912C016F
:1019E00090E0FC01E05EFE4F2189222319F1409135
:1019F0002001509121012091300141155105E1F064
:101A00004130510551F1809130018F5F8093300159
:101A1000082E000C990BE0912801F09129012181F9
:101A2000281719063CF41092300180912C018F5F29
:101A300080932C010C944C072111E5CF6091240177
:101A4000709125018F5C9E4F0E94330C90912C0168
:101A50009150890F80932C01D6CF60912401709111
:101A6000250140912201509123014130510531F46B
:101A7000720F8F5C9E4F0E94330CC5CF621BF9CF53
:101A8000CF93DF93C0E2D1E09B878A870E946807EB
:101A900084E190E09F838E83DF91CF910C94AA0B19
:101AA000CF93DF9300D000D0CDB7DEB7582FFB0126
:101AB0008091990290919A02A0919B02B0919C0210
:101AC00089839A83AB83BC8330E0A1E0B0E0AC0FA4
:101AD000BD1FA30FB11D2C91211108C010820F90C2
:101AE0000F900F900F90DF91CF910895852F622F67
:101AF0000E94080E411104C0521710F4213021F445
:101B0000805D8193592F41E03F5FDFCFCDB7DEB7D6
:101B1000A8970FB6F894DEBF0FBECDBFFE01339677
:101B200086E2DF011D928A95E9F786EB92E09A83BF
:101B3000898386E090E09E838D8389EF90E09A8789
:101B4000898788E391E09E878D8725E630E03A8B90
:101B5000298B28E630E03E8B2D8B23E232E03A8F52
:101B6000298F2AE136E03E8F2D8F21E131E03AA323
:101B700029A39EA38DA30E94EF0640E051E068E8F0
:101B800073E182EF92E00E94590A909313038093CD
:101B90001203549A5C98569A5E98209112033091E1
:101BA00013034BE15AE064E670E089EF92E00E9493
:101BB000FA09909311038093100368EC0E94E808DF
:101BC00065E0CE0101960E94A90A90E080E0A89607
:101BD0000FB6F894DEBF0FBECDBF0895002480FD80
:101BE000060E660F11F08695D1F7802D089500241A
:101BF000552704C0080E591F880F991F009729F018
:101C000076956795B8F37105B9F7802D952F0895EE
:101C1000991B79E004C0991F961708F0961B881F3E
:101C20007A95C9F780950895AA1BBB1B51E107C09F
:101C3000AA1FBB1FA617B70710F0A61BB70B881F5C
:101C4000991F5A95A9F780959095BC01CD010895EB
:101C500097FB072E16F4009407D077FD09D00E9459
:101C6000140E07FC05D03EF4909581959F4F089582
:101C7000709561957F4F08958F929F92AF92BF921A
:101C8000CF92DF92EF92FF92CF93DF93EC016881C6
:101C900079818A819B81611571058105910521F406
:101CA00064E279ED8BE597E02DE133EF41E050E020
:101CB0000E94C90E49015A0127EA31E440E050E090
:101CC0000E94B00E6B017C012CEE34EF4FEF5FEF02
:101CD000C501B4010E94B00EDC01CB018C0D9D1D2D
:101CE000AE1DBF1DB7FF03C00197A109B04888838F
:101CF0009983AA83BB839F77DF91CF91FF90EF9069
:101D0000DF90CF90BF90AF909F908F9008950E94EA
:101D10003C0E089581E591E00E943C0E0895B0E0EC
:101D2000A0E08093510190935201A0935301B0938E
:101D300054010895FB01DC0101900D920020E1F7B0
:101D40000895FB01DC014150504048F001900D9294
:101D50000020C9F701C01D9241505040E0F708959E
:101D6000EE27FF27AA27BB2708C0A20FB31FE41F37
:101D7000F51F220F331F441F551F969587957795A2
:101D8000679598F37040A9F7009799F7BD01CF01C7
:101D90000895052E97FB1EF400940E94E00E57FD57
:101DA00007D00E94E80E07FC03D04EF40C94E00E1E
:101DB00050954095309521953F4F4F4F5F4F089577
:101DC00090958095709561957F4F8F4F9F4F0895A7
:101DD000A1E21A2EAA1BBB1BFD010DC0AA1FBB1F2F
:101DE000EE1FFF1FA217B307E407F50720F0A21BA1
:101DF000B30BE40BF50B661F771F881F991F1A940E
:101E000069F760957095809590959B01AC01BD0137
:081E1000CF010895F894FFCF03
:101E18003D393633302D2B28262422200100050594
:101E2800050501010505050501010303030101017C
:101E38000000000000001400000000000000000086
:101E4800000000000000000000000000000000008A
:101E5800000000000000000000000000000000007A
:101E680000010000002A383C472F2F2F3E333C4406
:101E7800232F2F4123472F2F2F3E32202F2F2F4440
:101E88002B2F2F2F442B2F2F2F442B2F2F2F442333
:101E98002B2F2F412346232F2F2F44232F2F41232E
:101EA800472F2F2F202F2F2F202020203E002A3889
:101EB8004533454242453245423342444441414418
:101EC8003444413341413241453345414142424323
:101ED80034434233424141474745454242453245F2
:101EE8004233424444414144344441334141324104
:101EF80045334541414242433443423342414142E2
:101F0800423E2000010305203B0200009220EB73B3
:101F18007D5FDE3DA552EA7A14004A222229BA2EB4
:101F2800D0050014C0010020A4126A2B9A74A37271
:101F3800A338ED498F38CE2AA712AA2AAE49100431
:101F480010145444380E11152A250000EA5BEB3AA8
:101F58004F726B3BCF73CF134F7AED5B9774247B33
:101F68005D564972FD5B6F5B6F7BEF136F7FEF57B9
:101F7800CE3897246D7B6D2BED5FAD5AAD24A772DB
:101F8800034000800310038003200040002000105D
:101F980000080004000200010380034003200080C1
:101FA8000310090B0002040507640A0100432B0013
:101FB800430047414D45204F56455220005350415C
:101FC8004345592052454144592056312E36204226
:0A1FD80059204D504820004C000035
:00000001FF
